{
  "_format": "hh-sol-artifact-1",
  "contractName": "NFTMarketplace",
  "sourceName": "contracts/NFTMarketplace.sol",
  "abi": [
    {
      "inputs": [
        {
          "internalType": "address",
          "name": "_nftContractAddress",
          "type": "address"
        },
        {
          "internalType": "address[]",
          "name": "_admins",
          "type": "address[]"
        }
      ],
      "stateMutability": "nonpayable",
      "type": "constructor"
    },
    {
      "anonymous": false,
      "inputs": [
        {
          "indexed": true,
          "internalType": "uint256",
          "name": "nftId",
          "type": "uint256"
        },
        {
          "indexed": true,
          "internalType": "uint256",
          "name": "bidId",
          "type": "uint256"
        },
        {
          "indexed": true,
          "internalType": "address",
          "name": "to",
          "type": "address"
        },
        {
          "indexed": false,
          "internalType": "uint256",
          "name": "bidAmount",
          "type": "uint256"
        }
      ],
      "name": "BidCreated",
      "type": "event"
    },
    {
      "anonymous": false,
      "inputs": [
        {
          "indexed": false,
          "internalType": "address",
          "name": "nftAddress",
          "type": "address"
        }
      ],
      "name": "ChangeNFTAddress",
      "type": "event"
    },
    {
      "anonymous": false,
      "inputs": [
        {
          "indexed": true,
          "internalType": "uint256",
          "name": "nftId",
          "type": "uint256"
        },
        {
          "indexed": true,
          "internalType": "address",
          "name": "owner",
          "type": "address"
        }
      ],
      "name": "ListingCanceled",
      "type": "event"
    },
    {
      "anonymous": false,
      "inputs": [
        {
          "indexed": true,
          "internalType": "uint256",
          "name": "nftId",
          "type": "uint256"
        },
        {
          "indexed": true,
          "internalType": "address",
          "name": "owner",
          "type": "address"
        },
        {
          "indexed": false,
          "internalType": "uint256",
          "name": "max",
          "type": "uint256"
        }
      ],
      "name": "ListingChanged",
      "type": "event"
    },
    {
      "anonymous": false,
      "inputs": [
        {
          "indexed": true,
          "internalType": "uint256",
          "name": "nftId",
          "type": "uint256"
        },
        {
          "indexed": true,
          "internalType": "address",
          "name": "owner",
          "type": "address"
        },
        {
          "indexed": false,
          "internalType": "uint256",
          "name": "max",
          "type": "uint256"
        }
      ],
      "name": "ListingCreated",
      "type": "event"
    },
    {
      "anonymous": false,
      "inputs": [
        {
          "indexed": true,
          "internalType": "uint256",
          "name": "nftId",
          "type": "uint256"
        },
        {
          "indexed": true,
          "internalType": "address",
          "name": "owner",
          "type": "address"
        },
        {
          "indexed": true,
          "internalType": "address",
          "name": "buyer",
          "type": "address"
        },
        {
          "indexed": false,
          "internalType": "address",
          "name": "receiver",
          "type": "address"
        },
        {
          "indexed": false,
          "internalType": "uint256",
          "name": "price",
          "type": "uint256"
        }
      ],
      "name": "ListingSold",
      "type": "event"
    },
    {
      "anonymous": false,
      "inputs": [
        {
          "indexed": true,
          "internalType": "bytes32",
          "name": "role",
          "type": "bytes32"
        },
        {
          "indexed": true,
          "internalType": "bytes32",
          "name": "previousAdminRole",
          "type": "bytes32"
        },
        {
          "indexed": true,
          "internalType": "bytes32",
          "name": "newAdminRole",
          "type": "bytes32"
        }
      ],
      "name": "RoleAdminChanged",
      "type": "event"
    },
    {
      "anonymous": false,
      "inputs": [
        {
          "indexed": true,
          "internalType": "bytes32",
          "name": "role",
          "type": "bytes32"
        },
        {
          "indexed": true,
          "internalType": "address",
          "name": "account",
          "type": "address"
        },
        {
          "indexed": true,
          "internalType": "address",
          "name": "sender",
          "type": "address"
        }
      ],
      "name": "RoleGranted",
      "type": "event"
    },
    {
      "anonymous": false,
      "inputs": [
        {
          "indexed": true,
          "internalType": "bytes32",
          "name": "role",
          "type": "bytes32"
        },
        {
          "indexed": true,
          "internalType": "address",
          "name": "account",
          "type": "address"
        },
        {
          "indexed": true,
          "internalType": "address",
          "name": "sender",
          "type": "address"
        }
      ],
      "name": "RoleRevoked",
      "type": "event"
    },
    {
      "inputs": [],
      "name": "ADMIN_ROLE",
      "outputs": [
        {
          "internalType": "bytes32",
          "name": "",
          "type": "bytes32"
        }
      ],
      "stateMutability": "view",
      "type": "function"
    },
    {
      "inputs": [],
      "name": "BROKER_ROLE",
      "outputs": [
        {
          "internalType": "bytes32",
          "name": "",
          "type": "bytes32"
        }
      ],
      "stateMutability": "view",
      "type": "function"
    },
    {
      "inputs": [],
      "name": "DEFAULT_ADMIN_ROLE",
      "outputs": [
        {
          "internalType": "bytes32",
          "name": "",
          "type": "bytes32"
        }
      ],
      "stateMutability": "view",
      "type": "function"
    },
    {
      "inputs": [
        {
          "internalType": "uint256",
          "name": "",
          "type": "uint256"
        }
      ],
      "name": "bidIdToBidData",
      "outputs": [
        {
          "internalType": "address",
          "name": "bidder",
          "type": "address"
        },
        {
          "internalType": "address",
          "name": "recipient",
          "type": "address"
        },
        {
          "internalType": "uint256",
          "name": "value",
          "type": "uint256"
        }
      ],
      "stateMutability": "view",
      "type": "function"
    },
    {
      "inputs": [
        {
          "internalType": "address",
          "name": "_nftContractAddress",
          "type": "address"
        }
      ],
      "name": "changeNFTAddress",
      "outputs": [],
      "stateMutability": "nonpayable",
      "type": "function"
    },
    {
      "inputs": [
        {
          "internalType": "uint256",
          "name": "_nftId",
          "type": "uint256"
        },
        {
          "internalType": "address",
          "name": "_to",
          "type": "address"
        }
      ],
      "name": "createBid",
      "outputs": [],
      "stateMutability": "payable",
      "type": "function"
    },
    {
      "inputs": [
        {
          "internalType": "uint256",
          "name": "_nftId",
          "type": "uint256"
        },
        {
          "internalType": "uint256",
          "name": "_max",
          "type": "uint256"
        },
        {
          "internalType": "address",
          "name": "_to",
          "type": "address"
        }
      ],
      "name": "createListing",
      "outputs": [],
      "stateMutability": "payable",
      "type": "function"
    },
    {
      "inputs": [
        {
          "internalType": "uint256",
          "name": "_nftId",
          "type": "uint256"
        }
      ],
      "name": "endAuction",
      "outputs": [],
      "stateMutability": "nonpayable",
      "type": "function"
    },
    {
      "inputs": [
        {
          "internalType": "uint256",
          "name": "_nftId",
          "type": "uint256"
        }
      ],
      "name": "getBidData",
      "outputs": [
        {
          "components": [
            {
              "internalType": "address",
              "name": "bidder",
              "type": "address"
            },
            {
              "internalType": "address",
              "name": "recipient",
              "type": "address"
            },
            {
              "internalType": "uint256",
              "name": "value",
              "type": "uint256"
            }
          ],
          "internalType": "struct INFTMarketplace.BidData[5]",
          "name": "_bidData",
          "type": "tuple[5]"
        },
        {
          "internalType": "uint256",
          "name": "_bidRef",
          "type": "uint256"
        }
      ],
      "stateMutability": "view",
      "type": "function"
    },
    {
      "inputs": [
        {
          "internalType": "bytes32",
          "name": "role",
          "type": "bytes32"
        }
      ],
      "name": "getRoleAdmin",
      "outputs": [
        {
          "internalType": "bytes32",
          "name": "",
          "type": "bytes32"
        }
      ],
      "stateMutability": "view",
      "type": "function"
    },
    {
      "inputs": [
        {
          "internalType": "bytes32",
          "name": "role",
          "type": "bytes32"
        },
        {
          "internalType": "uint256",
          "name": "index",
          "type": "uint256"
        }
      ],
      "name": "getRoleMember",
      "outputs": [
        {
          "internalType": "address",
          "name": "",
          "type": "address"
        }
      ],
      "stateMutability": "view",
      "type": "function"
    },
    {
      "inputs": [
        {
          "internalType": "bytes32",
          "name": "role",
          "type": "bytes32"
        }
      ],
      "name": "getRoleMemberCount",
      "outputs": [
        {
          "internalType": "uint256",
          "name": "",
          "type": "uint256"
        }
      ],
      "stateMutability": "view",
      "type": "function"
    },
    {
      "inputs": [
        {
          "internalType": "bytes32",
          "name": "role",
          "type": "bytes32"
        },
        {
          "internalType": "address",
          "name": "account",
          "type": "address"
        }
      ],
      "name": "grantRole",
      "outputs": [],
      "stateMutability": "nonpayable",
      "type": "function"
    },
    {
      "inputs": [
        {
          "internalType": "bytes32",
          "name": "role",
          "type": "bytes32"
        },
        {
          "internalType": "address",
          "name": "account",
          "type": "address"
        }
      ],
      "name": "hasRole",
      "outputs": [
        {
          "internalType": "bool",
          "name": "",
          "type": "bool"
        }
      ],
      "stateMutability": "view",
      "type": "function"
    },
    {
      "inputs": [
        {
          "internalType": "address",
          "name": "",
          "type": "address"
        }
      ],
      "name": "moneyOwed",
      "outputs": [
        {
          "internalType": "uint256",
          "name": "",
          "type": "uint256"
        }
      ],
      "stateMutability": "view",
      "type": "function"
    },
    {
      "inputs": [],
      "name": "nftContractAddress",
      "outputs": [
        {
          "internalType": "address",
          "name": "",
          "type": "address"
        }
      ],
      "stateMutability": "view",
      "type": "function"
    },
    {
      "inputs": [
        {
          "internalType": "uint256",
          "name": "",
          "type": "uint256"
        }
      ],
      "name": "nftIdToListingData",
      "outputs": [
        {
          "internalType": "uint256",
          "name": "max",
          "type": "uint256"
        },
        {
          "internalType": "bool",
          "name": "sold",
          "type": "bool"
        },
        {
          "internalType": "uint8",
          "name": "bidRef",
          "type": "uint8"
        }
      ],
      "stateMutability": "view",
      "type": "function"
    },
    {
      "inputs": [
        {
          "internalType": "bytes32",
          "name": "role",
          "type": "bytes32"
        },
        {
          "internalType": "address",
          "name": "account",
          "type": "address"
        }
      ],
      "name": "renounceRole",
      "outputs": [],
      "stateMutability": "nonpayable",
      "type": "function"
    },
    {
      "inputs": [
        {
          "internalType": "bytes32",
          "name": "role",
          "type": "bytes32"
        },
        {
          "internalType": "address",
          "name": "account",
          "type": "address"
        }
      ],
      "name": "revokeRole",
      "outputs": [],
      "stateMutability": "nonpayable",
      "type": "function"
    },
    {
      "inputs": [
        {
          "internalType": "bytes4",
          "name": "interfaceId",
          "type": "bytes4"
        }
      ],
      "name": "supportsInterface",
      "outputs": [
        {
          "internalType": "bool",
          "name": "",
          "type": "bool"
        }
      ],
      "stateMutability": "view",
      "type": "function"
    },
    {
      "inputs": [
        {
          "internalType": "uint256",
          "name": "_nftId",
          "type": "uint256"
        },
        {
          "internalType": "uint256",
          "name": "_max",
          "type": "uint256"
        }
      ],
      "name": "updateListingPrice",
      "outputs": [],
      "stateMutability": "nonpayable",
      "type": "function"
    },
    {
      "inputs": [],
      "name": "withdraw",
      "outputs": [],
      "stateMutability": "nonpayable",
      "type": "function"
    }
  ],
  "bytecode": "0x60806040523480156200001157600080fd5b5060405162002cd438038062002cd483398101604081905262000034916200060e565b806200004260003362000170565b6200006c60008051602062002c9483398151915260008051602062002cb483398151915262000180565b60005b81518160ff1610156200011557620000c860008051602062002cb4833981519152838360ff1681518110620000b457634e487b7160e01b600052603260045260246000fd5b6020026020010151620001cb60201b60201c565b6200010060008051602062002c94833981519152838360ff1681518110620000b457634e487b7160e01b600052603260045260246000fd5b806200010c8162000831565b9150506200006f565b5050600380546001600160a01b0319166001600160a01b0384169081179091556040519081527fc243061c784474b2eff754e3ee317eb3cf25de6192e05ad5dde908cb768c292e9060200160405180910390a1505062000880565b6200017c8282620001f9565b5050565b600082815260208190526040808220600101805490849055905190918391839186917fbd79b86ffe0ab8e8776151514217cd7cacd52c909f66475c3af44e129f0b00ff9190a4505050565b600082815260208190526040902060010154620001e88162000237565b620001f48383620001f9565b505050565b6200021082826200024660201b620016861760201c565b6000828152600160209081526040909120620001f49183906200170a620002e6821b17901c565b62000243813362000306565b50565b6000828152602081815260408083206001600160a01b038516845290915290205460ff166200017c576000828152602081815260408083206001600160a01b03851684529091529020805460ff19166001179055620002a23390565b6001600160a01b0316816001600160a01b0316837f2f8788117e7eff1d82e926ec794901d17c78024a50270940304540a733656f0d60405160405180910390a45050565b6000620002fd836001600160a01b038416620003aa565b90505b92915050565b6000828152602081815260408083206001600160a01b038516845290915290205460ff166200017c5762000350816001600160a01b03166014620003fc60201b6200171f1760201c565b620003668360206200171f620003fc821b17811c565b60405160200162000379929190620006f9565b60408051601f198184030181529082905262461bcd60e51b8252620003a19160040162000772565b60405180910390fd5b6000818152600183016020526040812054620003f35750815460018181018455600084815260208082209093018490558454848252828601909352604090209190915562000300565b50600062000300565b606060006200040d836002620007c2565b6200041a906002620007a7565b6001600160401b038111156200044057634e487b7160e01b600052604160045260246000fd5b6040519080825280601f01601f1916602001820160405280156200046b576020820181803683370190505b509050600360fc1b816000815181106200049557634e487b7160e01b600052603260045260246000fd5b60200101906001600160f81b031916908160001a905350600f60fb1b81600181518110620004d357634e487b7160e01b600052603260045260246000fd5b60200101906001600160f81b031916908160001a9053506000620004f9846002620007c2565b62000506906001620007a7565b90505b6001811115620005a0576f181899199a1a9b1b9c1cb0b131b232b360811b85600f16601081106200054a57634e487b7160e01b600052603260045260246000fd5b1a60f81b8282815181106200056f57634e487b7160e01b600052603260045260246000fd5b60200101906001600160f81b031916908160001a90535060049490941c93620005988162000817565b905062000509565b508315620002fd5760405162461bcd60e51b815260206004820181905260248201527f537472696e67733a20686578206c656e67746820696e73756666696369656e746044820152606401620003a1565b80516001600160a01b03811681146200060957600080fd5b919050565b6000806040838503121562000621578182fd5b6200062c83620005f1565b602084810151919350906001600160401b03808211156200064b578384fd5b818601915086601f8301126200065f578384fd5b8151818111156200067457620006746200086a565b8060051b604051601f19603f830116810181811085821117156200069c576200069c6200086a565b604052828152858101935084860182860187018b1015620006bb578788fd5b8795505b83861015620006e857620006d381620005f1565b855260019590950194938601938601620006bf565b508096505050505050509250929050565b7f416363657373436f6e74726f6c3a206163636f756e742000000000000000000081526000835162000733816017850160208801620007e4565b7001034b99036b4b9b9b4b733903937b6329607d1b601791840191820152835162000766816028840160208801620007e4565b01602801949350505050565b602081526000825180602084015262000793816040850160208701620007e4565b601f01601f19169190910160400192915050565b60008219821115620007bd57620007bd62000854565b500190565b6000816000190483118215151615620007df57620007df62000854565b500290565b60005b8381101562000801578181015183820152602001620007e7565b8381111562000811576000848401525b50505050565b60008162000829576200082962000854565b506000190190565b600060ff821660ff8114156200084b576200084b62000854565b60010192915050565b634e487b7160e01b600052601160045260246000fd5b634e487b7160e01b600052604160045260246000fd5b61240480620008906000396000f3fe6080604052600436106101355760003560e01c80639010d07c116100ab578063aae282e11161006f578063aae282e114610422578063b8bd1b1d14610442578063b9a2de3a14610455578063c460494314610475578063ca15c87314610495578063d547741f146104b557600080fd5b80639010d07c1461032957806391d1485414610361578063a1f0fe1b14610381578063a217fddf146103df578063a92c300a146103f457600080fd5b8063340a76ef116100fd578063340a76ef1461020457806336568abe146102245780633ccfd60b146102445780634cf2b0e5146102595780635294c59e1461028657806375b238fc146102f557600080fd5b806301ffc9a71461013a578063029793ec1461016f57806317e96ec61461019f578063248a9ca3146101b45780632f2ff15d146101e4575b600080fd5b34801561014657600080fd5b5061015a6101553660046120f2565b6104d5565b60405190151581526020015b60405180910390f35b34801561017b57600080fd5b506101916000805160206123af83398151915281565b604051908152602001610166565b6101b26101ad36600461212c565b610500565b005b3480156101c057600080fd5b506101916101cf36600461208a565b60009081526020819052604090206001015490565b3480156101f057600080fd5b506101b26101ff3660046120a2565b610a46565b34801561021057600080fd5b506101b261021f366004612032565b610a70565b34801561023057600080fd5b506101b261023f3660046120a2565b610aef565b34801561025057600080fd5b506101b2610b6d565b34801561026557600080fd5b50610191610274366004612032565b60066020526000908152604090205481565b34801561029257600080fd5b506102cf6102a136600461208a565b6005602052600090815260409020805460018201546002909201546001600160a01b03918216929091169083565b604080516001600160a01b03948516815293909216602084015290820152606001610166565b34801561030157600080fd5b506101917fdf8b4c520ffe197c5343c6f5aec59570151ef9a492f2c624fd45ddde6135ec4281565b34801561033557600080fd5b506103496103443660046120d1565b610ba7565b6040516001600160a01b039091168152602001610166565b34801561036d57600080fd5b5061015a61037c3660046120a2565b610bc6565b34801561038d57600080fd5b506103c161039c36600461208a565b6004602052600090815260409020805460019091015460ff8082169161010090041683565b60408051938452911515602084015260ff1690820152606001610166565b3480156103eb57600080fd5b50610191600081565b34801561040057600080fd5b5061041461040f36600461208a565b610bef565b6040516101669291906121d9565b34801561042e57600080fd5b50600354610349906001600160a01b031681565b6101b261045036600461211a565b610d3e565b34801561046157600080fd5b506101b261047036600461208a565b6110f5565b34801561048157600080fd5b506101b26104903660046120d1565b6112c5565b3480156104a157600080fd5b506101916104b036600461208a565b61164a565b3480156104c157600080fd5b506101b26104d03660046120a2565b611661565b60006001600160e01b03198216635a05180f60e01b14806104fa57506104fa82611901565b92915050565b6000805160206123af83398151915261051881611936565b60035460405163020604bf60e21b81526004810186905285916001600160a01b0316903090829063081812fc9060240160206040518083038186803b15801561056057600080fd5b505afa158015610574573d6000803e3d6000fd5b505050506040513d601f19601f82011682018060405250810190610598919061204e565b6001600160a01b031614806106a557506040516331a9108f60e11b8152600481018390526001600160a01b0382169063e985e9c5908290636352211e9060240160206040518083038186803b1580156105f057600080fd5b505afa158015610604573d6000803e3d6000fd5b505050506040513d601f19601f82011682018060405250810190610628919061204e565b6040516001600160e01b031960e084901b1681526001600160a01b03909116600482015230602482015260440160206040518083038186803b15801561066d57600080fd5b505afa158015610681573d6000803e3d6000fd5b505050506040513d601f19601f820116820180604052508101906106a5919061206a565b6106ca5760405162461bcd60e51b81526004016106c19061226d565b60405180910390fd5b6000341161071a5760405162461bcd60e51b815260206004820152601d60248201527f6d696e207072696365206d7573742062652061626f766520302077656900000060448201526064016106c1565b600085116107745760405162461bcd60e51b815260206004820152602160248201527f6d6178207072696365206d757374206265207365742061626f766520302077656044820152606960f81b60648201526084016106c1565b8434106107d25760405162461bcd60e51b815260206004820152602660248201527f6d6178207072696365206d7573742062652061626f7665207374617274696e6760448201526520707269636560d01b60648201526084016106c1565b6001600160a01b0384166108325760405162461bcd60e51b815260206004820152602160248201527f61646472657373206d757374206e6f74206265207468652030206164647265736044820152607360f81b60648201526084016106c1565b604080516060810182523381526001600160a01b03868116602080840191825234848601908152600280546000908152600590935295909120845181549085166001600160a01b031991821617825592516001820180549190951693169290921790925590519201919091556108a6611f82565b6002805482526040805160808101825289815260006020808301828152838501838152606085018881528f8552600490935294909220835181559151600183018054955160ff166101000261ff00199215159290921661ffff1990961695909517179093559151909261091e91908301906005611fa0565b50506003546040516331a9108f60e11b8152600481018b90526001600160a01b039091169150636352211e9060240160206040518083038186803b15801561096557600080fd5b505afa158015610979573d6000803e3d6000fd5b505050506040513d601f19601f8201168201806040525081019061099d919061204e565b6001600160a01b0316887f9adf89188ff96bbe0e772b6a9345d935a240c2bd656be8db63db0d091e92cb9d896040516109d891815260200190565b60405180910390a3856001600160a01b0316600254897f6d2b783673dbbf046f2e5a1f3c92ce62c29a0f5385f2b1f0eaf19019ef28cb5534604051610a1f91815260200190565b60405180910390a460028054906000610a3783612348565b91905055505050505050505050565b600082815260208190526040902060010154610a6181611936565b610a6b8383611940565b505050565b7fdf8b4c520ffe197c5343c6f5aec59570151ef9a492f2c624fd45ddde6135ec42610a9a81611936565b600380546001600160a01b0319166001600160a01b0384169081179091556040519081527fc243061c784474b2eff754e3ee317eb3cf25de6192e05ad5dde908cb768c292e9060200160405180910390a15050565b6001600160a01b0381163314610b5f5760405162461bcd60e51b815260206004820152602f60248201527f416363657373436f6e74726f6c3a2063616e206f6e6c792072656e6f756e636560448201526e103937b632b9903337b91039b2b63360891b60648201526084016106c1565b610b698282611962565b5050565b3360008181526006602052604080822054905181156108fc0292818181858888f19350505050158015610ba4573d6000803e3d6000fd5b50565b6000828152600160205260408120610bbf9083611984565b9392505050565b6000918252602082815260408084206001600160a01b0393909316845291905290205460ff1690565b610bf7611fde565b6000828152600460209081526040808320815160808101835281548152600182015460ff808216151595830195909552610100900490931683830152815160a0810192839052849392606084019190600284019060059082845b815481526020019060010190808311610c51575050505050815250509050610c77611fde565b60005b6005811015610d29576005600084606001518360058110610cab57634e487b7160e01b600052603260045260246000fd5b602090810291909101518252818101929092526040908101600020815160608101835281546001600160a01b039081168252600183015416938101939093526002015490820152828260058110610d1257634e487b7160e01b600052603260045260246000fd5b602002015280610d2181612348565b915050610c7a565b50604090910151909460ff9091169350915050565b60035460405163020604bf60e21b81526004810184905283916001600160a01b0316903090829063081812fc9060240160206040518083038186803b158015610d8657600080fd5b505afa158015610d9a573d6000803e3d6000fd5b505050506040513d601f19601f82011682018060405250810190610dbe919061204e565b6001600160a01b03161480610ecb57506040516331a9108f60e11b8152600481018390526001600160a01b0382169063e985e9c5908290636352211e9060240160206040518083038186803b158015610e1657600080fd5b505afa158015610e2a573d6000803e3d6000fd5b505050506040513d601f19601f82011682018060405250810190610e4e919061204e565b6040516001600160e01b031960e084901b1681526001600160a01b03909116600482015230602482015260440160206040518083038186803b158015610e9357600080fd5b505afa158015610ea7573d6000803e3d6000fd5b505050506040513d601f19601f82011682018060405250810190610ecb919061206a565b610ee75760405162461bcd60e51b81526004016106c19061226d565b6000848152600460205260409020600181015460ff1615610f405760405162461bcd60e51b81526020600482015260136024820152726e6674206973206e6f7420666f722073616c6560681b60448201526064016106c1565b60018101546005906000906002840190610100900460ff16838110610f7557634e487b7160e01b600052603260045260246000fd5b01548152602001908152602001600020600201543411610fe35760405162461bcd60e51b815260206004820152602360248201527f6269642068617320746f2062652061626f76652063757272656e74206d696e696044820152626d756d60e81b60648201526084016106c1565b80543411156110405760405162461bcd60e51b815260206004820152602360248201527f6269642068617320746f206265206174206f722062656c6f77206d617820707260448201526269636560e81b60648201526084016106c1565b6110958560056000846002018560010160019054906101000a900460ff1660ff166005811061107f57634e487b7160e01b600052603260045260246000fd5b0154815260200190815260200160002086611990565b836001600160a01b0316600254867f6d2b783673dbbf046f2e5a1f3c92ce62c29a0f5385f2b1f0eaf19019ef28cb55346040516110d491815260200190565b60405180910390a480543414156110ee576110ee85611ae8565b5050505050565b6000805160206123af83398151915261110d81611936565b60035460405163020604bf60e21b81526004810184905283916001600160a01b0316903090829063081812fc9060240160206040518083038186803b15801561115557600080fd5b505afa158015611169573d6000803e3d6000fd5b505050506040513d601f19601f8201168201806040525081019061118d919061204e565b6001600160a01b0316148061129a57506040516331a9108f60e11b8152600481018390526001600160a01b0382169063e985e9c5908290636352211e9060240160206040518083038186803b1580156111e557600080fd5b505afa1580156111f9573d6000803e3d6000fd5b505050506040513d601f19601f8201168201806040525081019061121d919061204e565b6040516001600160e01b031960e084901b1681526001600160a01b03909116600482015230602482015260440160206040518083038186803b15801561126257600080fd5b505afa158015611276573d6000803e3d6000fd5b505050506040513d601f19601f8201168201806040525081019061129a919061206a565b6112b65760405162461bcd60e51b81526004016106c19061226d565b6112bf84611ae8565b50505050565b6000805160206123af8339815191526112dd81611936565b60035460405163020604bf60e21b81526004810185905284916001600160a01b0316903090829063081812fc9060240160206040518083038186803b15801561132557600080fd5b505afa158015611339573d6000803e3d6000fd5b505050506040513d601f19601f8201168201806040525081019061135d919061204e565b6001600160a01b0316148061146a57506040516331a9108f60e11b8152600481018390526001600160a01b0382169063e985e9c5908290636352211e9060240160206040518083038186803b1580156113b557600080fd5b505afa1580156113c9573d6000803e3d6000fd5b505050506040513d601f19601f820116820180604052508101906113ed919061204e565b6040516001600160e01b031960e084901b1681526001600160a01b03909116600482015230602482015260440160206040518083038186803b15801561143257600080fd5b505afa158015611446573d6000803e3d6000fd5b505050506040513d601f19601f8201168201806040525081019061146a919061206a565b6114865760405162461bcd60e51b81526004016106c19061226d565b6000858152600460205260409020600181015460ff16156114e95760405162461bcd60e51b815260206004820152601d60248201527f63616e27742075706461746520616c726561647920736f6c64206e667400000060448201526064016106c1565b60018101546005906000906002840190610100900460ff1683811061151e57634e487b7160e01b600052603260045260246000fd5b015481526020019081526020016000206002015485116115805760405162461bcd60e51b815260206004820152601b60248201527f6d6178207072696365206d7573742062652061626f7665206d696e000000000060448201526064016106c1565b8481556003546040516331a9108f60e11b8152600481018890526001600160a01b0390911690636352211e9060240160206040518083038186803b1580156115c757600080fd5b505afa1580156115db573d6000803e3d6000fd5b505050506040513d601f19601f820116820180604052508101906115ff919061204e565b6001600160a01b0316867f7fd8f58e8aebbbf58e023909ee953e3fe4de47a861f63e96487fe90faac331798760405161163a91815260200190565b60405180910390a3505050505050565b60008181526001602052604081206104fa90611cf6565b60008281526020819052604090206001015461167c81611936565b610a6b8383611962565b6116908282610bc6565b610b69576000828152602081815260408083206001600160a01b03851684529091529020805460ff191660011790556116c63390565b6001600160a01b0316816001600160a01b0316837f2f8788117e7eff1d82e926ec794901d17c78024a50270940304540a733656f0d60405160405180910390a45050565b6000610bbf836001600160a01b038416611d00565b6060600061172e8360026122cf565b6117399060026122b7565b67ffffffffffffffff81111561175f57634e487b7160e01b600052604160045260246000fd5b6040519080825280601f01601f191660200182016040528015611789576020820181803683370190505b509050600360fc1b816000815181106117b257634e487b7160e01b600052603260045260246000fd5b60200101906001600160f81b031916908160001a905350600f60fb1b816001815181106117ef57634e487b7160e01b600052603260045260246000fd5b60200101906001600160f81b031916908160001a90535060006118138460026122cf565b61181e9060016122b7565b90505b60018111156118b2576f181899199a1a9b1b9c1cb0b131b232b360811b85600f166010811061186057634e487b7160e01b600052603260045260246000fd5b1a60f81b82828151811061188457634e487b7160e01b600052603260045260246000fd5b60200101906001600160f81b031916908160001a90535060049490941c936118ab81612331565b9050611821565b508315610bbf5760405162461bcd60e51b815260206004820181905260248201527f537472696e67733a20686578206c656e67746820696e73756666696369656e7460448201526064016106c1565b60006001600160e01b03198216637965db0b60e01b14806104fa57506301ffc9a760e01b6001600160e01b03198316146104fa565b610ba48133611d4f565b61194a8282611686565b6000828152600160205260409020610a6b908261170a565b61196c8282611db3565b6000828152600160205260409020610a6b9082611e18565b6000610bbf8383611e2d565b600282015482546001600160a01b0316600090815260066020526040812080549091906119be9084906122b7565b9091555050604080516060810182523381526001600160a01b0383811660208084019182523484860190815260028054600090815260058452878120875181549088166001600160a01b0319918216178255955160018083018054929099169190971617909655915194019390935587835260049081905293909120908101549192909160ff610100909104161415611a635760018101805461ff0019169055611a96565b60018181018054610100900460ff1691611a7c83612363565b91906101000a81548160ff021916908360ff160217905550505b6002805460018301549091830190610100900460ff1660058110611aca57634e487b7160e01b600052603260045260246000fd5b015560028054906000611adc83612348565b91905055505050505050565b6003546040516331a9108f60e11b8152600481018390526001600160a01b03909116906000908290636352211e9060240160206040518083038186803b158015611b3157600080fd5b505afa158015611b45573d6000803e3d6000fd5b505050506040513d601f19601f82011682018060405250810190611b69919061204e565b600084815260046020526040812060018101549293509160059082906002850190610100900460ff16838110611baf57634e487b7160e01b600052603260045260246000fd5b015481526020808201929092526040908101600020815160608101835281546001600160a01b03908116825260018301548116948201859052600290920154818401529151632142170760e11b815286821660048201526024810193909352604483018890529092508516906342842e0e90606401600060405180830381600087803b158015611c3e57600080fd5b505af1158015611c52573d6000803e3d6000fd5b505050506001828101805460ff191690911790556040808201516001600160a01b03851660009081526006602052918220805491929091611c949084906122b7565b9091555050805160208083015160408085015181516001600160a01b03938416815293840152928116929086169188917f663f983c4daacceba62769a1571b23c512a1227d54c5b0b2782302bbb0014087910160405180910390a45050505050565b60006104fa825490565b6000818152600183016020526040812054611d47575081546001818101845560008481526020808220909301849055845484825282860190935260409020919091556104fa565b5060006104fa565b611d598282610bc6565b610b6957611d71816001600160a01b0316601461171f565b611d7c83602061171f565b604051602001611d8d929190612164565b60408051601f198184030181529082905262461bcd60e51b82526106c19160040161223a565b611dbd8282610bc6565b15610b69576000828152602081815260408083206001600160a01b0385168085529252808320805460ff1916905551339285917ff6391f5c32d9c69d2a47ea670b442974b53935d1edc7fd64eb21e047a839171b9190a45050565b6000610bbf836001600160a01b038416611e65565b6000826000018281548110611e5257634e487b7160e01b600052603260045260246000fd5b9060005260206000200154905092915050565b60008181526001830160205260408120548015611f78576000611e896001836122ee565b8554909150600090611e9d906001906122ee565b9050818114611f1e576000866000018281548110611ecb57634e487b7160e01b600052603260045260246000fd5b9060005260206000200154905080876000018481548110611efc57634e487b7160e01b600052603260045260246000fd5b6000918252602080832090910192909255918252600188019052604090208390555b8554869080611f3d57634e487b7160e01b600052603160045260246000fd5b6001900381819060005260206000200160009055905585600101600086815260200190815260200160002060009055600193505050506104fa565b60009150506104fa565b6040518060a001604052806005906020820280368337509192915050565b8260058101928215611fce579160200282015b82811115611fce578251825591602001919060010190611fb3565b50611fda92915061201d565b5090565b6040518060a001604052806005905b6040805160608101825260008082526020808301829052928201528252600019909201910181611fed5790505090565b5b80821115611fda576000815560010161201e565b600060208284031215612043578081fd5b8135610bbf81612399565b60006020828403121561205f578081fd5b8151610bbf81612399565b60006020828403121561207b578081fd5b81518015158114610bbf578182fd5b60006020828403121561209b578081fd5b5035919050565b600080604083850312156120b4578081fd5b8235915060208301356120c681612399565b809150509250929050565b600080604083850312156120e3578182fd5b50508035926020909101359150565b600060208284031215612103578081fd5b81356001600160e01b031981168114610bbf578182fd5b600080604083850312156120b4578182fd5b600080600060608486031215612140578081fd5b8335925060208401359150604084013561215981612399565b809150509250925092565b7f416363657373436f6e74726f6c3a206163636f756e742000000000000000000081526000835161219c816017850160208801612305565b7001034b99036b4b9b9b4b733903937b6329607d1b60179184019182015283516121cd816028840160208801612305565b01602801949350505050565b6102008101818460005b600581101561222957815180516001600160a01b0390811685526020808301519091168186015260409182015191850191909152606090930192909101906001016121e3565b505050826101e08301529392505050565b6020815260008251806020840152612259816040850160208701612305565b601f01601f19169190910160400192915050565b6020808252602a908201527f636f6e7472616374206973206e6f7420617070726f76656420666f722073656c6040820152693634b733903a37b5b2b760b11b606082015260800190565b600082198211156122ca576122ca612383565b500190565b60008160001904831182151516156122e9576122e9612383565b500290565b60008282101561230057612300612383565b500390565b60005b83811015612320578181015183820152602001612308565b838111156112bf5750506000910152565b60008161234057612340612383565b506000190190565b600060001982141561235c5761235c612383565b5060010190565b600060ff821660ff81141561237a5761237a612383565b60010192915050565b634e487b7160e01b600052601160045260246000fd5b6001600160a01b0381168114610ba457600080fdfe7fcce6a499b6d8a3672e3669f525a458fa2543baa244623617dd2ae829df407da2646970667358221220f1bbcd7c2ef09fdfe1d06e310050ea46baa1a07c2bd779d0574984353b80c45c64736f6c634300080400337fcce6a499b6d8a3672e3669f525a458fa2543baa244623617dd2ae829df407ddf8b4c520ffe197c5343c6f5aec59570151ef9a492f2c624fd45ddde6135ec42",
  "linkReferences": {},
  "deployedLinkReferences": {}
}