{
  "_format": "hh-sol-artifact-1",
  "contractName": "LuxVestingNFT",
  "sourceName": "contracts/LuxVestingNFT.sol",
  "abi": [
    {
      "inputs": [
        {
          "internalType": "string",
          "name": "_newURIPrefix",
          "type": "string"
        },
        {
          "internalType": "address[]",
          "name": "admins",
          "type": "address[]"
        }
      ],
      "stateMutability": "nonpayable",
      "type": "constructor"
    },
    {
      "anonymous": false,
      "inputs": [
        {
          "indexed": true,
          "internalType": "address",
          "name": "owner",
          "type": "address"
        },
        {
          "indexed": true,
          "internalType": "address",
          "name": "approved",
          "type": "address"
        },
        {
          "indexed": true,
          "internalType": "uint256",
          "name": "tokenId",
          "type": "uint256"
        }
      ],
      "name": "Approval",
      "type": "event"
    },
    {
      "anonymous": false,
      "inputs": [
        {
          "indexed": true,
          "internalType": "address",
          "name": "owner",
          "type": "address"
        },
        {
          "indexed": true,
          "internalType": "address",
          "name": "operator",
          "type": "address"
        },
        {
          "indexed": false,
          "internalType": "bool",
          "name": "approved",
          "type": "bool"
        }
      ],
      "name": "ApprovalForAll",
      "type": "event"
    },
    {
      "anonymous": false,
      "inputs": [
        {
          "indexed": true,
          "internalType": "uint256",
          "name": "nftId",
          "type": "uint256"
        },
        {
          "indexed": false,
          "internalType": "bool",
          "name": "isPrivate",
          "type": "bool"
        }
      ],
      "name": "ChangePrivacy",
      "type": "event"
    },
    {
      "anonymous": false,
      "inputs": [
        {
          "indexed": false,
          "internalType": "string",
          "name": "newURIPrefix",
          "type": "string"
        },
        {
          "indexed": false,
          "internalType": "uint256",
          "name": "timestamp",
          "type": "uint256"
        }
      ],
      "name": "NewURIPrefix",
      "type": "event"
    },
    {
      "anonymous": false,
      "inputs": [
        {
          "indexed": true,
          "internalType": "uint256",
          "name": "nftId",
          "type": "uint256"
        },
        {
          "indexed": false,
          "internalType": "string",
          "name": "newURISuffix",
          "type": "string"
        },
        {
          "indexed": false,
          "internalType": "uint256",
          "name": "timestamp",
          "type": "uint256"
        }
      ],
      "name": "NewURISuffix",
      "type": "event"
    },
    {
      "anonymous": false,
      "inputs": [
        {
          "indexed": true,
          "internalType": "bytes32",
          "name": "role",
          "type": "bytes32"
        },
        {
          "indexed": true,
          "internalType": "bytes32",
          "name": "previousAdminRole",
          "type": "bytes32"
        },
        {
          "indexed": true,
          "internalType": "bytes32",
          "name": "newAdminRole",
          "type": "bytes32"
        }
      ],
      "name": "RoleAdminChanged",
      "type": "event"
    },
    {
      "anonymous": false,
      "inputs": [
        {
          "indexed": true,
          "internalType": "bytes32",
          "name": "role",
          "type": "bytes32"
        },
        {
          "indexed": true,
          "internalType": "address",
          "name": "account",
          "type": "address"
        },
        {
          "indexed": true,
          "internalType": "address",
          "name": "sender",
          "type": "address"
        }
      ],
      "name": "RoleGranted",
      "type": "event"
    },
    {
      "anonymous": false,
      "inputs": [
        {
          "indexed": true,
          "internalType": "bytes32",
          "name": "role",
          "type": "bytes32"
        },
        {
          "indexed": true,
          "internalType": "address",
          "name": "account",
          "type": "address"
        },
        {
          "indexed": true,
          "internalType": "address",
          "name": "sender",
          "type": "address"
        }
      ],
      "name": "RoleRevoked",
      "type": "event"
    },
    {
      "anonymous": false,
      "inputs": [
        {
          "indexed": true,
          "internalType": "address",
          "name": "from",
          "type": "address"
        },
        {
          "indexed": true,
          "internalType": "address",
          "name": "to",
          "type": "address"
        },
        {
          "indexed": true,
          "internalType": "uint256",
          "name": "tokenId",
          "type": "uint256"
        }
      ],
      "name": "Transfer",
      "type": "event"
    },
    {
      "inputs": [],
      "name": "ADMIN_ROLE",
      "outputs": [
        {
          "internalType": "bytes32",
          "name": "",
          "type": "bytes32"
        }
      ],
      "stateMutability": "view",
      "type": "function"
    },
    {
      "inputs": [],
      "name": "BROKER_ROLE",
      "outputs": [
        {
          "internalType": "bytes32",
          "name": "",
          "type": "bytes32"
        }
      ],
      "stateMutability": "view",
      "type": "function"
    },
    {
      "inputs": [],
      "name": "DEFAULT_ADMIN_ROLE",
      "outputs": [
        {
          "internalType": "bytes32",
          "name": "",
          "type": "bytes32"
        }
      ],
      "stateMutability": "view",
      "type": "function"
    },
    {
      "inputs": [
        {
          "internalType": "address",
          "name": "to",
          "type": "address"
        },
        {
          "internalType": "uint256",
          "name": "_nftId",
          "type": "uint256"
        }
      ],
      "name": "approve",
      "outputs": [],
      "stateMutability": "nonpayable",
      "type": "function"
    },
    {
      "inputs": [
        {
          "internalType": "address",
          "name": "owner",
          "type": "address"
        }
      ],
      "name": "balanceOf",
      "outputs": [
        {
          "internalType": "uint256",
          "name": "",
          "type": "uint256"
        }
      ],
      "stateMutability": "view",
      "type": "function"
    },
    {
      "inputs": [
        {
          "internalType": "uint256",
          "name": "_nftId",
          "type": "uint256"
        },
        {
          "internalType": "bool",
          "name": "_isPrivate",
          "type": "bool"
        }
      ],
      "name": "editPrivacy",
      "outputs": [],
      "stateMutability": "nonpayable",
      "type": "function"
    },
    {
      "inputs": [
        {
          "internalType": "uint256",
          "name": "tokenId",
          "type": "uint256"
        }
      ],
      "name": "getApproved",
      "outputs": [
        {
          "internalType": "address",
          "name": "",
          "type": "address"
        }
      ],
      "stateMutability": "view",
      "type": "function"
    },
    {
      "inputs": [
        {
          "internalType": "bytes32",
          "name": "role",
          "type": "bytes32"
        }
      ],
      "name": "getRoleAdmin",
      "outputs": [
        {
          "internalType": "bytes32",
          "name": "",
          "type": "bytes32"
        }
      ],
      "stateMutability": "view",
      "type": "function"
    },
    {
      "inputs": [
        {
          "internalType": "bytes32",
          "name": "role",
          "type": "bytes32"
        },
        {
          "internalType": "uint256",
          "name": "index",
          "type": "uint256"
        }
      ],
      "name": "getRoleMember",
      "outputs": [
        {
          "internalType": "address",
          "name": "",
          "type": "address"
        }
      ],
      "stateMutability": "view",
      "type": "function"
    },
    {
      "inputs": [
        {
          "internalType": "bytes32",
          "name": "role",
          "type": "bytes32"
        }
      ],
      "name": "getRoleMemberCount",
      "outputs": [
        {
          "internalType": "uint256",
          "name": "",
          "type": "uint256"
        }
      ],
      "stateMutability": "view",
      "type": "function"
    },
    {
      "inputs": [
        {
          "internalType": "bytes32",
          "name": "role",
          "type": "bytes32"
        },
        {
          "internalType": "address",
          "name": "account",
          "type": "address"
        }
      ],
      "name": "grantRole",
      "outputs": [],
      "stateMutability": "nonpayable",
      "type": "function"
    },
    {
      "inputs": [
        {
          "internalType": "bytes32",
          "name": "role",
          "type": "bytes32"
        },
        {
          "internalType": "address",
          "name": "account",
          "type": "address"
        }
      ],
      "name": "hasRole",
      "outputs": [
        {
          "internalType": "bool",
          "name": "",
          "type": "bool"
        }
      ],
      "stateMutability": "view",
      "type": "function"
    },
    {
      "inputs": [
        {
          "internalType": "address",
          "name": "owner",
          "type": "address"
        },
        {
          "internalType": "address",
          "name": "operator",
          "type": "address"
        }
      ],
      "name": "isApprovedForAll",
      "outputs": [
        {
          "internalType": "bool",
          "name": "",
          "type": "bool"
        }
      ],
      "stateMutability": "view",
      "type": "function"
    },
    {
      "inputs": [
        {
          "internalType": "address",
          "name": "recipient",
          "type": "address"
        },
        {
          "internalType": "string",
          "name": "_tokenURI",
          "type": "string"
        },
        {
          "internalType": "bool",
          "name": "_isPrivate",
          "type": "bool"
        }
      ],
      "name": "mintNFT",
      "outputs": [
        {
          "internalType": "uint256",
          "name": "",
          "type": "uint256"
        }
      ],
      "stateMutability": "nonpayable",
      "type": "function"
    },
    {
      "inputs": [],
      "name": "name",
      "outputs": [
        {
          "internalType": "string",
          "name": "",
          "type": "string"
        }
      ],
      "stateMutability": "view",
      "type": "function"
    },
    {
      "inputs": [
        {
          "internalType": "uint256",
          "name": "",
          "type": "uint256"
        }
      ],
      "name": "nftData",
      "outputs": [
        {
          "internalType": "bool",
          "name": "isPrivate",
          "type": "bool"
        }
      ],
      "stateMutability": "view",
      "type": "function"
    },
    {
      "inputs": [
        {
          "internalType": "uint256",
          "name": "tokenId",
          "type": "uint256"
        }
      ],
      "name": "ownerOf",
      "outputs": [
        {
          "internalType": "address",
          "name": "",
          "type": "address"
        }
      ],
      "stateMutability": "view",
      "type": "function"
    },
    {
      "inputs": [
        {
          "internalType": "bytes32",
          "name": "role",
          "type": "bytes32"
        },
        {
          "internalType": "address",
          "name": "account",
          "type": "address"
        }
      ],
      "name": "renounceRole",
      "outputs": [],
      "stateMutability": "nonpayable",
      "type": "function"
    },
    {
      "inputs": [
        {
          "internalType": "bytes32",
          "name": "role",
          "type": "bytes32"
        },
        {
          "internalType": "address",
          "name": "account",
          "type": "address"
        }
      ],
      "name": "revokeRole",
      "outputs": [],
      "stateMutability": "nonpayable",
      "type": "function"
    },
    {
      "inputs": [
        {
          "internalType": "address",
          "name": "from",
          "type": "address"
        },
        {
          "internalType": "address",
          "name": "to",
          "type": "address"
        },
        {
          "internalType": "uint256",
          "name": "tokenId",
          "type": "uint256"
        }
      ],
      "name": "safeTransferFrom",
      "outputs": [],
      "stateMutability": "nonpayable",
      "type": "function"
    },
    {
      "inputs": [
        {
          "internalType": "address",
          "name": "from",
          "type": "address"
        },
        {
          "internalType": "address",
          "name": "to",
          "type": "address"
        },
        {
          "internalType": "uint256",
          "name": "tokenId",
          "type": "uint256"
        },
        {
          "internalType": "bytes",
          "name": "_data",
          "type": "bytes"
        }
      ],
      "name": "safeTransferFrom",
      "outputs": [],
      "stateMutability": "nonpayable",
      "type": "function"
    },
    {
      "inputs": [
        {
          "internalType": "address",
          "name": "operator",
          "type": "address"
        },
        {
          "internalType": "bool",
          "name": "approved",
          "type": "bool"
        }
      ],
      "name": "setApprovalForAll",
      "outputs": [],
      "stateMutability": "nonpayable",
      "type": "function"
    },
    {
      "inputs": [
        {
          "internalType": "string",
          "name": "_newURIPrefix",
          "type": "string"
        }
      ],
      "name": "setBaseURI",
      "outputs": [],
      "stateMutability": "nonpayable",
      "type": "function"
    },
    {
      "inputs": [
        {
          "internalType": "uint256",
          "name": "_nftId",
          "type": "uint256"
        },
        {
          "internalType": "string",
          "name": "_uri",
          "type": "string"
        }
      ],
      "name": "setTokenURI",
      "outputs": [],
      "stateMutability": "nonpayable",
      "type": "function"
    },
    {
      "inputs": [
        {
          "internalType": "bytes4",
          "name": "interfaceId",
          "type": "bytes4"
        }
      ],
      "name": "supportsInterface",
      "outputs": [
        {
          "internalType": "bool",
          "name": "",
          "type": "bool"
        }
      ],
      "stateMutability": "view",
      "type": "function"
    },
    {
      "inputs": [],
      "name": "symbol",
      "outputs": [
        {
          "internalType": "string",
          "name": "",
          "type": "string"
        }
      ],
      "stateMutability": "view",
      "type": "function"
    },
    {
      "inputs": [
        {
          "internalType": "uint256",
          "name": "_nftId",
          "type": "uint256"
        }
      ],
      "name": "tokenURI",
      "outputs": [
        {
          "internalType": "string",
          "name": "",
          "type": "string"
        }
      ],
      "stateMutability": "view",
      "type": "function"
    },
    {
      "inputs": [
        {
          "internalType": "address",
          "name": "from",
          "type": "address"
        },
        {
          "internalType": "address",
          "name": "to",
          "type": "address"
        },
        {
          "internalType": "uint256",
          "name": "tokenId",
          "type": "uint256"
        }
      ],
      "name": "transferFrom",
      "outputs": [],
      "stateMutability": "nonpayable",
      "type": "function"
    }
  ],
  "bytecode": "0x60806040523480156200001157600080fd5b5060405162002c8b38038062002c8b8339810160408190526200003491620007ab565b604080518082018252600d81526c131d5e15995cdd1a5b99d39195609a1b60208083019182528351808501909452600684526513159613919560d21b90840152815184939162000088916000919062000665565b5080516200009e90600190602084019062000665565b50620000b091506000905033620001de565b620000da60008051602062002c4b83398151915260008051602062002c6b833981519152620001ee565b60005b81518160ff16101562000183576200013660008051602062002c6b833981519152838360ff16815181106200012257634e487b7160e01b600052603260045260246000fd5b60200260200101516200023960201b60201c565b6200016e60008051602062002c4b833981519152838360ff16815181106200012257634e487b7160e01b600052603260045260246000fd5b806200017a8162000a46565b915050620000dd565b505081516200019a90600990602085019062000665565b507f15de567807362e67c4681a7950125db5f29596f19e83ccb2c3d05d4acfcb50908242604051620001ce92919062000928565b60405180910390a1505062000a95565b620001ea828262000267565b5050565b600082815260066020526040808220600101805490849055905190918391839186917fbd79b86ffe0ab8e8776151514217cd7cacd52c909f66475c3af44e129f0b00ff9190a4505050565b6000828152600660205260409020600101546200025681620002a5565b62000262838362000267565b505050565b6200027e8282620002b460201b62000d1f1760201c565b60008281526007602090815260409091206200026291839062000da562000358821b17901c565b620002b1813362000378565b50565b60008281526006602090815260408083206001600160a01b038516845290915290205460ff16620001ea5760008281526006602090815260408083206001600160a01b03851684529091529020805460ff19166001179055620003143390565b6001600160a01b0316816001600160a01b0316837f2f8788117e7eff1d82e926ec794901d17c78024a50270940304540a733656f0d60405160405180910390a45050565b60006200036f836001600160a01b0384166200041e565b90505b92915050565b60008281526006602090815260408083206001600160a01b038516845290915290205460ff16620001ea57620003c4816001600160a01b031660146200047060201b62000dba1760201c565b620003da83602062000dba62000470821b17811c565b604051602001620003ed9291906200089a565b60408051601f198184030181529082905262461bcd60e51b8252620004159160040162000913565b60405180910390fd5b6000818152600183016020526040812054620004675750815460018181018455600084815260208082209093018490558454848252828601909352604090209190915562000372565b50600062000372565b60606000620004818360026200099a565b6200048e9060026200097f565b6001600160401b03811115620004b457634e487b7160e01b600052604160045260246000fd5b6040519080825280601f01601f191660200182016040528015620004df576020820181803683370190505b509050600360fc1b816000815181106200050957634e487b7160e01b600052603260045260246000fd5b60200101906001600160f81b031916908160001a905350600f60fb1b816001815181106200054757634e487b7160e01b600052603260045260246000fd5b60200101906001600160f81b031916908160001a90535060006200056d8460026200099a565b6200057a9060016200097f565b90505b600181111562000614576f181899199a1a9b1b9c1cb0b131b232b360811b85600f1660108110620005be57634e487b7160e01b600052603260045260246000fd5b1a60f81b828281518110620005e357634e487b7160e01b600052603260045260246000fd5b60200101906001600160f81b031916908160001a90535060049490941c936200060c81620009ef565b90506200057d565b5083156200036f5760405162461bcd60e51b815260206004820181905260248201527f537472696e67733a20686578206c656e67746820696e73756666696369656e74604482015260640162000415565b828054620006739062000a09565b90600052602060002090601f016020900481019282620006975760008555620006e2565b82601f10620006b257805160ff1916838001178555620006e2565b82800160010185558215620006e2579182015b82811115620006e2578251825591602001919060010190620006c5565b50620006f0929150620006f4565b5090565b5b80821115620006f05760008155600101620006f5565b600082601f8301126200071c578081fd5b815160206001600160401b038211156200073a576200073a62000a7f565b8160051b6200074b8282016200094c565b83815282810190868401838801850189101562000766578687fd5b8693505b858410156200079f5780516001600160a01b03811681146200078a578788fd5b8352600193909301929184019184016200076a565b50979650505050505050565b60008060408385031215620007be578182fd5b82516001600160401b0380821115620007d5578384fd5b818501915085601f830112620007e9578384fd5b815181811115620007fe57620007fe62000a7f565b62000813601f8201601f19166020016200094c565b81815287602083860101111562000828578586fd5b6200083b826020830160208701620009bc565b60208701519095509250508082111562000853578283fd5b5062000862858286016200070b565b9150509250929050565b6000815180845262000886816020860160208601620009bc565b601f01601f19169290920160200192915050565b7f416363657373436f6e74726f6c3a206163636f756e7420000000000000000000815260008351620008d4816017850160208801620009bc565b7001034b99036b4b9b9b4b733903937b6329607d1b601791840191820152835162000907816028840160208801620009bc565b01602801949350505050565b6020815260006200036f60208301846200086c565b6040815260006200093d60408301856200086c565b90508260208301529392505050565b604051601f8201601f191681016001600160401b038111828210171562000977576200097762000a7f565b604052919050565b6000821982111562000995576200099562000a69565b500190565b6000816000190483118215151615620009b757620009b762000a69565b500290565b60005b83811015620009d9578181015183820152602001620009bf565b83811115620009e9576000848401525b50505050565b60008162000a015762000a0162000a69565b506000190190565b600181811c9082168062000a1e57607f821691505b6020821081141562000a4057634e487b7160e01b600052602260045260246000fd5b50919050565b600060ff821660ff81141562000a605762000a6062000a69565b60010192915050565b634e487b7160e01b600052601160045260246000fd5b634e487b7160e01b600052604160045260246000fd5b6121a68062000aa56000396000f3fe608060405234801561001057600080fd5b50600436106101c45760003560e01c806370a08231116100f9578063a22cb46511610097578063ca15c87311610071578063ca15c873146103f0578063d547741f14610403578063e985e9c514610416578063f9eed5401461045257600080fd5b8063a22cb465146103b7578063b88d4fde146103ca578063c87b56dd146103dd57600080fd5b80639010d07c116100d35780639010d07c1461038157806391d148541461039457806395d89b41146103a7578063a217fddf146103af57600080fd5b806370a082311461032457806375b238fc146103375780638c2109751461035e57600080fd5b806323b872dd1161016657806336568abe1161014057806336568abe146102d857806342842e0e146102eb57806355f804b3146102fe5780636352211e1461031157600080fd5b806323b872dd1461028f578063248a9ca3146102a25780632f2ff15d146102c557600080fd5b8063081812fc116101a2578063081812fc14610229578063095ea7b314610254578063162094c4146102695780631c8015761461027c57600080fd5b806301ffc9a7146101c9578063029793ec146101f157806306fdde0314610214575b600080fd5b6101dc6101d7366004611cd6565b610465565b60405190151581526020015b60405180910390f35b61020660008051602061215183398151915281565b6040519081526020016101e8565b61021c610476565b6040516101e89190611f33565b61023c610237366004611c7b565b610508565b6040516001600160a01b0390911681526020016101e8565b610267610262366004611c52565b6105a2565b005b610267610277366004611d63565b610647565b61026761028a366004611d41565b6106f2565b61026761029d366004611b19565b610844565b6102066102b0366004611c7b565b60009081526006602052604090206001015490565b6102676102d3366004611c93565b61087a565b6102676102e6366004611c93565b61089f565b6102676102f9366004611b19565b61091d565b61026761030c366004611d0e565b610938565b61023c61031f366004611c7b565b6109b3565b610206610332366004611acd565b610a2a565b6102067fdf8b4c520ffe197c5343c6f5aec59570151ef9a492f2c624fd45ddde6135ec4281565b6101dc61036c366004611c7b565b600a6020526000908152604090205460ff1681565b61023c61038f366004611cb5565b610ab1565b6101dc6103a2366004611c93565b610ad0565b61021c610afb565b610206600081565b6102676103c5366004611bcd565b610b0a565b6102676103d8366004611b54565b610b15565b61021c6103eb366004611c7b565b610b47565b6102066103fe366004611c7b565b610c66565b610267610411366004611c93565b610c7d565b6101dc610424366004611ae7565b6001600160a01b03918216600090815260056020908152604080832093909416825291909152205460ff1690565b610206610460366004611bf6565b610ca2565b600061047082610f9c565b92915050565b606060008054610485906120d3565b80601f01602080910402602001604051908101604052809291908181526020018280546104b1906120d3565b80156104fe5780601f106104d3576101008083540402835291602001916104fe565b820191906000526020600020905b8154815290600101906020018083116104e157829003601f168201915b5050505050905090565b6000818152600260205260408120546001600160a01b03166105865760405162461bcd60e51b815260206004820152602c60248201527f4552433732313a20617070726f76656420717565727920666f72206e6f6e657860448201526b34b9ba32b73a103a37b5b2b760a11b60648201526084015b60405180910390fd5b506000908152600460205260409020546001600160a01b031690565b6000805160206121518339815191526105ba81610fc1565b60006105c5836109b3565b9050806001600160a01b0316846001600160a01b031614156106375760405162461bcd60e51b815260206004820152602560248201527f63616e2774206772616e7420617070726f76616c20746f2063757272656e742060448201526437bbb732b960d91b606482015260840161057d565b6106418484610fce565b50505050565b816000610653826109b3565b6001600160a01b0316141561067a5760405162461bcd60e51b815260040161057d90611fba565b60008051602061215183398151915261069281610fc1565b6000848152600b6020908152604090912084516106b192860190611973565b50837f6a187005e63c04c7ee1ecb1c791c5049223307a3beb8a3a39306ed2845e97f8f84426040516106e4929190611f46565b60405180910390a250505050565b8160006106fe826109b3565b6001600160a01b031614156107255760405162461bcd60e51b815260040161057d90611fba565b8261072f816109b3565b6001600160a01b0316336001600160a01b03161461078f5760405162461bcd60e51b815260206004820152601860248201527f73656e646572206973206e6f7420617574686f72697a65640000000000000000604482015260640161057d565b6000848152600a602052604090205460ff16151583151514156107f45760405162461bcd60e51b815260206004820152601b60248201527f64657369726564207072697661637920616c7265616479207365740000000000604482015260640161057d565b6000848152600a6020908152604091829020805460ff1916861515908117909155915191825285917f63ed2f3ea3ab4a8cbae37f8e9e6ac599db2d42c284e705a30d0e7b4ce0c419aa91016106e4565b61084e338261103c565b61086a5760405162461bcd60e51b815260040161057d90611ff1565b610875838383611133565b505050565b60008281526006602052604090206001015461089581610fc1565b61087583836112cf565b6001600160a01b038116331461090f5760405162461bcd60e51b815260206004820152602f60248201527f416363657373436f6e74726f6c3a2063616e206f6e6c792072656e6f756e636560448201526e103937b632b9903337b91039b2b63360891b606482015260840161057d565b61091982826112f1565b5050565b61087583838360405180602001604052806000815250610b15565b7fdf8b4c520ffe197c5343c6f5aec59570151ef9a492f2c624fd45ddde6135ec4261096281610fc1565b8151610975906009906020850190611973565b507f15de567807362e67c4681a7950125db5f29596f19e83ccb2c3d05d4acfcb509082426040516109a7929190611f46565b60405180910390a15050565b6000818152600260205260408120546001600160a01b0316806104705760405162461bcd60e51b815260206004820152602960248201527f4552433732313a206f776e657220717565727920666f72206e6f6e657869737460448201526832b73a103a37b5b2b760b91b606482015260840161057d565b60006001600160a01b038216610a955760405162461bcd60e51b815260206004820152602a60248201527f4552433732313a2062616c616e636520717565727920666f7220746865207a65604482015269726f206164647265737360b01b606482015260840161057d565b506001600160a01b031660009081526003602052604090205490565b6000828152600760205260408120610ac99083611313565b9392505050565b60009182526006602090815260408084206001600160a01b0393909316845291905290205460ff1690565b606060018054610485906120d3565b61091933838361131f565b610b1f338361103c565b610b3b5760405162461bcd60e51b815260040161057d90611ff1565b610641848484846113ee565b6060816000610b55826109b3565b6001600160a01b03161415610b7c5760405162461bcd60e51b815260040161057d90611fba565b6000838152600a6020526040902054839060ff161580610bac575033610ba1826109b3565b6001600160a01b0316145b80610bdc5750610bdc7fdf8b4c520ffe197c5343c6f5aec59570151ef9a492f2c624fd45ddde6135ec4233610ad0565b610c285760405162461bcd60e51b815260206004820152601760248201527f6e6f7420616c6c6f77656420746f2076696577206e6674000000000000000000604482015260640161057d565b6009600b6000868152602001908152602001600020604051602001610c4e929190611e6c565b60405160208183030381529060405292505050919050565b600081815260076020526040812061047090611421565b600082815260066020526040902060010154610c9881610fc1565b61087583836112f1565b6000600080516020612151833981519152610cbc81610fc1565b610cca600880546001019055565b6000610cd560085490565b9050610ce1868261142b565b610ceb8186610647565b604080516020808201835295151581526000838152600a90965294209351845460ff19169015151790935550909392505050565b610d298282610ad0565b6109195760008281526006602090815260408083206001600160a01b03851684529091529020805460ff19166001179055610d613390565b6001600160a01b0316816001600160a01b0316837f2f8788117e7eff1d82e926ec794901d17c78024a50270940304540a733656f0d60405160405180910390a45050565b6000610ac9836001600160a01b03841661156d565b60606000610dc983600261205a565b610dd4906002612042565b67ffffffffffffffff811115610dfa57634e487b7160e01b600052604160045260246000fd5b6040519080825280601f01601f191660200182016040528015610e24576020820181803683370190505b509050600360fc1b81600081518110610e4d57634e487b7160e01b600052603260045260246000fd5b60200101906001600160f81b031916908160001a905350600f60fb1b81600181518110610e8a57634e487b7160e01b600052603260045260246000fd5b60200101906001600160f81b031916908160001a9053506000610eae84600261205a565b610eb9906001612042565b90505b6001811115610f4d576f181899199a1a9b1b9c1cb0b131b232b360811b85600f1660108110610efb57634e487b7160e01b600052603260045260246000fd5b1a60f81b828281518110610f1f57634e487b7160e01b600052603260045260246000fd5b60200101906001600160f81b031916908160001a90535060049490941c93610f46816120bc565b9050610ebc565b508315610ac95760405162461bcd60e51b815260206004820181905260248201527f537472696e67733a20686578206c656e67746820696e73756666696369656e74604482015260640161057d565b60006001600160e01b03198216635a05180f60e01b14806104705750610470826115bc565b610fcb81336115e1565b50565b600081815260046020526040902080546001600160a01b0319166001600160a01b0384169081179091558190611003826109b3565b6001600160a01b03167f8c5be1e5ebec7d5bd14f71427d1e84f3dd0314c0f7b2291e5b200ac8c7c3b92560405160405180910390a45050565b6000818152600260205260408120546001600160a01b03166110b55760405162461bcd60e51b815260206004820152602c60248201527f4552433732313a206f70657261746f7220717565727920666f72206e6f6e657860448201526b34b9ba32b73a103a37b5b2b760a11b606482015260840161057d565b60006110c0836109b3565b9050806001600160a01b0316846001600160a01b0316148061110757506001600160a01b0380821660009081526005602090815260408083209388168352929052205460ff165b8061112b5750836001600160a01b031661112084610508565b6001600160a01b0316145b949350505050565b826001600160a01b0316611146826109b3565b6001600160a01b0316146111aa5760405162461bcd60e51b815260206004820152602560248201527f4552433732313a207472616e736665722066726f6d20696e636f72726563742060448201526437bbb732b960d91b606482015260840161057d565b6001600160a01b03821661120c5760405162461bcd60e51b8152602060048201526024808201527f4552433732313a207472616e7366657220746f20746865207a65726f206164646044820152637265737360e01b606482015260840161057d565b611217600082610fce565b6001600160a01b0383166000908152600360205260408120805460019290611240908490612079565b90915550506001600160a01b038216600090815260036020526040812080546001929061126e908490612042565b909155505060008181526002602052604080822080546001600160a01b0319166001600160a01b0386811691821790925591518493918716917fddf252ad1be2c89b69c2b068fc378daa952ba7f163c4a11628f55a4df523b3ef91a4505050565b6112d98282610d1f565b60008281526007602052604090206108759082610da5565b6112fb8282611645565b600082815260076020526040902061087590826116ac565b6000610ac983836116c1565b816001600160a01b0316836001600160a01b031614156113815760405162461bcd60e51b815260206004820152601960248201527f4552433732313a20617070726f766520746f2063616c6c657200000000000000604482015260640161057d565b6001600160a01b03838116600081815260056020908152604080832094871680845294825291829020805460ff191686151590811790915591519182527f17307eab39ab6107e8899845ad3d59bd9653f200f220920489ca2b5937696c31910160405180910390a3505050565b6113f9848484611133565b611405848484846116f9565b6106415760405162461bcd60e51b815260040161057d90611f68565b6000610470825490565b6001600160a01b0382166114815760405162461bcd60e51b815260206004820181905260248201527f4552433732313a206d696e7420746f20746865207a65726f2061646472657373604482015260640161057d565b6000818152600260205260409020546001600160a01b0316156114e65760405162461bcd60e51b815260206004820152601c60248201527f4552433732313a20746f6b656e20616c7265616479206d696e74656400000000604482015260640161057d565b6001600160a01b038216600090815260036020526040812080546001929061150f908490612042565b909155505060008181526002602052604080822080546001600160a01b0319166001600160a01b03861690811790915590518392907fddf252ad1be2c89b69c2b068fc378daa952ba7f163c4a11628f55a4df523b3ef908290a45050565b60008181526001830160205260408120546115b457508154600181810184556000848152602080822090930184905584548482528286019093526040902091909155610470565b506000610470565b60006001600160e01b03198216637965db0b60e01b1480610470575061047082611806565b6115eb8282610ad0565b61091957611603816001600160a01b03166014610dba565b61160e836020610dba565b60405160200161161f929190611e81565b60408051601f198184030181529082905262461bcd60e51b825261057d91600401611f33565b61164f8282610ad0565b156109195760008281526006602090815260408083206001600160a01b0385168085529252808320805460ff1916905551339285917ff6391f5c32d9c69d2a47ea670b442974b53935d1edc7fd64eb21e047a839171b9190a45050565b6000610ac9836001600160a01b038416611856565b60008260000182815481106116e657634e487b7160e01b600052603260045260246000fd5b9060005260206000200154905092915050565b60006001600160a01b0384163b156117fb57604051630a85bd0160e11b81526001600160a01b0385169063150b7a029061173d903390899088908890600401611ef6565b602060405180830381600087803b15801561175757600080fd5b505af1925050508015611787575060408051601f3d908101601f1916820190925261178491810190611cf2565b60015b6117e1573d8080156117b5576040519150601f19603f3d011682016040523d82523d6000602084013e6117ba565b606091505b5080516117d95760405162461bcd60e51b815260040161057d90611f68565b805181602001fd5b6001600160e01b031916630a85bd0160e11b14905061112b565b506001949350505050565b60006001600160e01b031982166380ac58cd60e01b148061183757506001600160e01b03198216635b5e139f60e01b145b8061047057506301ffc9a760e01b6001600160e01b0319831614610470565b6000818152600183016020526040812054801561196957600061187a600183612079565b855490915060009061188e90600190612079565b905081811461190f5760008660000182815481106118bc57634e487b7160e01b600052603260045260246000fd5b90600052602060002001549050808760000184815481106118ed57634e487b7160e01b600052603260045260246000fd5b6000918252602080832090910192909255918252600188019052604090208390555b855486908061192e57634e487b7160e01b600052603160045260246000fd5b600190038181906000526020600020016000905590558560010160008681526020019081526020016000206000905560019350505050610470565b6000915050610470565b82805461197f906120d3565b90600052602060002090601f0160209004810192826119a157600085556119e7565b82601f106119ba57805160ff19168380011785556119e7565b828001600101855582156119e7579182015b828111156119e75782518255916020019190600101906119cc565b506119f39291506119f7565b5090565b5b808211156119f357600081556001016119f8565b600067ffffffffffffffff80841115611a2757611a27612124565b604051601f8501601f19908116603f01168101908282118183101715611a4f57611a4f612124565b81604052809350858152868686011115611a6857600080fd5b858560208301376000602087830101525050509392505050565b80356001600160a01b0381168114611a9957600080fd5b919050565b80358015158114611a9957600080fd5b600082601f830112611abe578081fd5b610ac983833560208501611a0c565b600060208284031215611ade578081fd5b610ac982611a82565b60008060408385031215611af9578081fd5b611b0283611a82565b9150611b1060208401611a82565b90509250929050565b600080600060608486031215611b2d578081fd5b611b3684611a82565b9250611b4460208501611a82565b9150604084013590509250925092565b60008060008060808587031215611b69578081fd5b611b7285611a82565b9350611b8060208601611a82565b925060408501359150606085013567ffffffffffffffff811115611ba2578182fd5b8501601f81018713611bb2578182fd5b611bc187823560208401611a0c565b91505092959194509250565b60008060408385031215611bdf578182fd5b611be883611a82565b9150611b1060208401611a9e565b600080600060608486031215611c0a578283fd5b611c1384611a82565b9250602084013567ffffffffffffffff811115611c2e578283fd5b611c3a86828701611aae565b925050611c4960408501611a9e565b90509250925092565b60008060408385031215611c64578182fd5b611c6d83611a82565b946020939093013593505050565b600060208284031215611c8c578081fd5b5035919050565b60008060408385031215611ca5578182fd5b82359150611b1060208401611a82565b60008060408385031215611cc7578182fd5b50508035926020909101359150565b600060208284031215611ce7578081fd5b8135610ac98161213a565b600060208284031215611d03578081fd5b8151610ac98161213a565b600060208284031215611d1f578081fd5b813567ffffffffffffffff811115611d35578182fd5b61112b84828501611aae565b60008060408385031215611d53578182fd5b82359150611b1060208401611a9e565b60008060408385031215611d75578182fd5b82359150602083013567ffffffffffffffff811115611d92578182fd5b611d9e85828601611aae565b9150509250929050565b60008151808452611dc0816020860160208601612090565b601f01601f19169290920160200192915050565b8054600090600181811c9080831680611dee57607f831692505b6020808410821415611e0e57634e487b7160e01b86526022600452602486fd5b818015611e225760018114611e3357611e60565b60ff19861689528489019650611e60565b60008881526020902060005b86811015611e585781548b820152908501908301611e3f565b505084890196505b50505050505092915050565b600061112b611e7b8386611dd4565b84611dd4565b7f416363657373436f6e74726f6c3a206163636f756e7420000000000000000000815260008351611eb9816017850160208801612090565b7001034b99036b4b9b9b4b733903937b6329607d1b6017918401918201528351611eea816028840160208801612090565b01602801949350505050565b6001600160a01b0385811682528416602082015260408101839052608060608201819052600090611f2990830184611da8565b9695505050505050565b602081526000610ac96020830184611da8565b604081526000611f596040830185611da8565b90508260208301529392505050565b60208082526032908201527f4552433732313a207472616e7366657220746f206e6f6e20455243373231526560408201527131b2b4bb32b91034b6b83632b6b2b73a32b960711b606082015260800190565b60208082526017908201527f4944206f66206e6f6e6578697374656e7420746f6b656e000000000000000000604082015260600190565b60208082526031908201527f4552433732313a207472616e736665722063616c6c6572206973206e6f74206f6040820152701ddb995c881b9bdc88185c1c1c9bdd9959607a1b606082015260800190565b600082198211156120555761205561210e565b500190565b60008160001904831182151516156120745761207461210e565b500290565b60008282101561208b5761208b61210e565b500390565b60005b838110156120ab578181015183820152602001612093565b838111156106415750506000910152565b6000816120cb576120cb61210e565b506000190190565b600181811c908216806120e757607f821691505b6020821081141561210857634e487b7160e01b600052602260045260246000fd5b50919050565b634e487b7160e01b600052601160045260246000fd5b634e487b7160e01b600052604160045260246000fd5b6001600160e01b031981168114610fcb57600080fdfe7fcce6a499b6d8a3672e3669f525a458fa2543baa244623617dd2ae829df407da264697066735822122038127d10eed5e556368b92c2a7917210a13892b62991abe2234b2817f0bfcdaf64736f6c634300080400337fcce6a499b6d8a3672e3669f525a458fa2543baa244623617dd2ae829df407ddf8b4c520ffe197c5343c6f5aec59570151ef9a492f2c624fd45ddde6135ec42",
  "linkReferences": {},
  "deployedLinkReferences": {}
}