{
  "_format": "hh-sol-artifact-1",
  "contractName": "LuxVestingTokenVendor",
  "sourceName": "contracts/LuxVestingTokenVendor.sol",
  "abi": [
    {
      "inputs": [
        {
          "internalType": "address",
          "name": "tokenAddress",
          "type": "address"
        }
      ],
      "stateMutability": "nonpayable",
      "type": "constructor"
    },
    {
      "anonymous": false,
      "inputs": [
        {
          "indexed": false,
          "internalType": "address",
          "name": "buyer",
          "type": "address"
        },
        {
          "indexed": false,
          "internalType": "uint256",
          "name": "amountOfEth",
          "type": "uint256"
        },
        {
          "indexed": false,
          "internalType": "uint256",
          "name": "amountOfToken",
          "type": "uint256"
        }
      ],
      "name": "BuyTokensWithETH",
      "type": "event"
    },
    {
      "anonymous": false,
      "inputs": [
        {
          "indexed": false,
          "internalType": "address",
          "name": "buyer",
          "type": "address"
        },
        {
          "indexed": false,
          "internalType": "uint256",
          "name": "amountOfToken",
          "type": "uint256"
        }
      ],
      "name": "GetTokens",
      "type": "event"
    },
    {
      "anonymous": false,
      "inputs": [
        {
          "indexed": true,
          "internalType": "address",
          "name": "previousOwner",
          "type": "address"
        },
        {
          "indexed": true,
          "internalType": "address",
          "name": "newOwner",
          "type": "address"
        }
      ],
      "name": "OwnershipTransferred",
      "type": "event"
    },
    {
      "anonymous": false,
      "inputs": [
        {
          "indexed": false,
          "internalType": "address",
          "name": "seller",
          "type": "address"
        },
        {
          "indexed": false,
          "internalType": "uint256",
          "name": "amountOfToken",
          "type": "uint256"
        },
        {
          "indexed": false,
          "internalType": "uint256",
          "name": "amountOfEth",
          "type": "uint256"
        }
      ],
      "name": "SellTokens",
      "type": "event"
    },
    {
      "inputs": [],
      "name": "owner",
      "outputs": [
        {
          "internalType": "address",
          "name": "",
          "type": "address"
        }
      ],
      "stateMutability": "view",
      "type": "function"
    },
    {
      "inputs": [
        {
          "internalType": "address",
          "name": "to",
          "type": "address"
        },
        {
          "internalType": "uint256",
          "name": "amountToBuy",
          "type": "uint256"
        }
      ],
      "name": "releaseTokens",
      "outputs": [
        {
          "internalType": "uint256",
          "name": "tokenAmount",
          "type": "uint256"
        }
      ],
      "stateMutability": "nonpayable",
      "type": "function"
    },
    {
      "inputs": [],
      "name": "releaseTokensForETH",
      "outputs": [
        {
          "internalType": "uint256",
          "name": "tokenAmount",
          "type": "uint256"
        }
      ],
      "stateMutability": "payable",
      "type": "function"
    },
    {
      "inputs": [],
      "name": "renounceOwnership",
      "outputs": [],
      "stateMutability": "nonpayable",
      "type": "function"
    },
    {
      "inputs": [
        {
          "internalType": "address",
          "name": "from",
          "type": "address"
        },
        {
          "internalType": "uint256",
          "name": "tokenAmountToSell",
          "type": "uint256"
        }
      ],
      "name": "retrieveTokens",
      "outputs": [],
      "stateMutability": "nonpayable",
      "type": "function"
    },
    {
      "inputs": [
        {
          "internalType": "address",
          "name": "from",
          "type": "address"
        },
        {
          "internalType": "uint256",
          "name": "tokenAmountToSell",
          "type": "uint256"
        }
      ],
      "name": "retrieveTokensForETH",
      "outputs": [],
      "stateMutability": "nonpayable",
      "type": "function"
    },
    {
      "inputs": [],
      "name": "tokensPerEth",
      "outputs": [
        {
          "internalType": "uint256",
          "name": "",
          "type": "uint256"
        }
      ],
      "stateMutability": "view",
      "type": "function"
    },
    {
      "inputs": [
        {
          "internalType": "address",
          "name": "newOwner",
          "type": "address"
        }
      ],
      "name": "transferOwnership",
      "outputs": [],
      "stateMutability": "nonpayable",
      "type": "function"
    }
  ],
  "bytecode": "0x6080604052606460025534801561001557600080fd5b50604051610e38380380610e38833981016040819052610034916100b2565b61003d33610062565b600180546001600160a01b0319166001600160a01b03929092169190911790556100e0565b600080546001600160a01b038381166001600160a01b0319831681178455604051919092169283917f8be0079c531659141344cd1fd0a4f28419497f9722a3daafe3b4186f6b6457e09190a35050565b6000602082840312156100c3578081fd5b81516001600160a01b03811681146100d9578182fd5b9392505050565b610d49806100ef6000396000f3fe60806040526004361061007b5760003560e01c80639b94fa3c1161004e5780639b94fa3c14610104578063cbdd69b51461011a578063f2fde38b14610130578063f40d71f11461015057600080fd5b806334e8c67914610080578063589f1918146100a2578063715018a6146100c25780638da5cb5b146100d7575b600080fd5b34801561008c57600080fd5b506100a061009b366004610b1c565b610170565b005b3480156100ae57600080fd5b506100a06100bd366004610b1c565b6102eb565b3480156100ce57600080fd5b506100a0610582565b3480156100e357600080fd5b506000546040516001600160a01b0390911681526020015b60405180910390f35b61010c6105e8565b6040519081526020016100fb565b34801561012657600080fd5b5061010c60025481565b34801561013c57600080fd5b506100a061014b366004610afb565b610801565b34801561015c57600080fd5b5061010c61016b366004610b1c565b6108cc565b600081116101995760405162461bcd60e51b815260040161019090610c7c565b60405180910390fd5b6001546040516370a0823160e01b81526001600160a01b03848116600483015260009216906370a082319060240160206040518083038186803b1580156101df57600080fd5b505afa1580156101f3573d6000803e3d6000fd5b505050506040513d601f19601f820116820180604052508101906102179190610b65565b9050818110156102395760405162461bcd60e51b815260040161019090610b7d565b6001546040516323b872dd60e01b81526001600160a01b0385811660048301523060248301526044820185905260009216906323b872dd90606401602060405180830381600087803b15801561028e57600080fd5b505af11580156102a2573d6000803e3d6000fd5b505050506040513d601f19601f820116820180604052508101906102c69190610b45565b9050806102e55760405162461bcd60e51b815260040161019090610bdb565b50505050565b6000811161030b5760405162461bcd60e51b815260040161019090610c7c565b6001546040516370a0823160e01b81526001600160a01b03848116600483015260009216906370a082319060240160206040518083038186803b15801561035157600080fd5b505afa158015610365573d6000803e3d6000fd5b505050506040513d601f19601f820116820180604052508101906103899190610b65565b9050818110156103ab5760405162461bcd60e51b815260040161019090610b7d565b6000600254836103bb9190610cc8565b9050478181101561042d5760405162461bcd60e51b815260206004820152603660248201527f56656e646f7220686173206e6f7420656e6f7567682066756e647320746f206160448201527518d8d95c1d081d1a19481cd95b1b081c995c5d595cdd60521b6064820152608401610190565b6001546040516323b872dd60e01b81526001600160a01b0387811660048301523060248301526044820187905260009216906323b872dd90606401602060405180830381600087803b15801561048257600080fd5b505af1158015610496573d6000803e3d6000fd5b505050506040513d601f19601f820116820180604052508101906104ba9190610b45565b9050806104d95760405162461bcd60e51b815260040161019090610bdb565b6040516001600160a01b038716908490600081818185875af1925050503d8060008114610522576040519150601f19603f3d011682016040523d82523d6000602084013e610527565b606091505b5050809150508061057a5760405162461bcd60e51b815260206004820152601e60248201527f4661696c656420746f2073656e642045544820746f20746865207573657200006044820152606401610190565b505050505050565b6000546001600160a01b031633146105dc5760405162461bcd60e51b815260206004820181905260248201527f4f776e61626c653a2063616c6c6572206973206e6f7420746865206f776e65726044820152606401610190565b6105e66000610a8f565b565b60008034116106325760405162461bcd60e51b815260206004820152601660248201527553656e642045544820746f2062757920746f6b656e7360501b6044820152606401610190565b6000600254346106429190610ce8565b6001546040516370a0823160e01b81523060048201529192506000916001600160a01b03909116906370a082319060240160206040518083038186803b15801561068b57600080fd5b505afa15801561069f573d6000803e3d6000fd5b505050506040513d601f19601f820116820180604052508101906106c39190610b65565b9050818110156106e55760405162461bcd60e51b815260040161019090610c28565b60015460405163a9059cbb60e01b8152336004820152602481018490526000916001600160a01b03169063a9059cbb90604401602060405180830381600087803b15801561073257600080fd5b505af1158015610746573d6000803e3d6000fd5b505050506040513d601f19601f8201168201806040525081019061076a9190610b45565b9050806107b95760405162461bcd60e51b815260206004820181905260248201527f4661696c656420746f207472616e7366657220746f6b656e20746f20757365726044820152606401610190565b604080513381523460208201529081018490527f7c27ad343014aeb5a7fe14a6e6f7a24b48dc02cb5092b719539d9c6bf74c1a4f9060600160405180910390a1509092915050565b6000546001600160a01b0316331461085b5760405162461bcd60e51b815260206004820181905260248201527f4f776e61626c653a2063616c6c6572206973206e6f7420746865206f776e65726044820152606401610190565b6001600160a01b0381166108c05760405162461bcd60e51b815260206004820152602660248201527f4f776e61626c653a206e6577206f776e657220697320746865207a65726f206160448201526564647265737360d01b6064820152608401610190565b6108c981610a8f565b50565b6001546040516370a0823160e01b815230600482015260009182916001600160a01b03909116906370a082319060240160206040518083038186803b15801561091457600080fd5b505afa158015610928573d6000803e3d6000fd5b505050506040513d601f19601f8201168201806040525081019061094c9190610b65565b90508281101561096e5760405162461bcd60e51b815260040161019090610c28565b60015460405163a9059cbb60e01b81526001600160a01b03868116600483015260248201869052600092169063a9059cbb90604401602060405180830381600087803b1580156109bd57600080fd5b505af11580156109d1573d6000803e3d6000fd5b505050506040513d601f19601f820116820180604052508101906109f59190610b45565b905080610a445760405162461bcd60e51b815260206004820181905260248201527f4661696c656420746f207472616e7366657220746f6b656e20746f20757365726044820152606401610190565b604080516001600160a01b0387168152602081018690527f4548b1aee8699526a653c333825df46ff8ec8117201598e9f02bb9f566c5754e910160405180910390a150919392505050565b600080546001600160a01b038381166001600160a01b0319831681178455604051919092169283917f8be0079c531659141344cd1fd0a4f28419497f9722a3daafe3b4186f6b6457e09190a35050565b80356001600160a01b0381168114610af657600080fd5b919050565b600060208284031215610b0c578081fd5b610b1582610adf565b9392505050565b60008060408385031215610b2e578081fd5b610b3783610adf565b946020939093013593505050565b600060208284031215610b56578081fd5b81518015158114610b15578182fd5b600060208284031215610b76578081fd5b5051919050565b602080825260409082018190527f596f75722062616c616e6365206973206c6f776572207468616e207468652061908201527f6d6f756e74206f6620746f6b656e7320796f752077616e7420746f2073656c6c606082015260800190565b6020808252602d908201527f4661696c656420746f207472616e7366657220746f6b656e732066726f6d207560408201526c39b2b9103a37903b32b73237b960991b606082015260800190565b60208082526034908201527f56656e646f7220636f6e747261637420686173206e6f7420656e6f75676820746040820152736f6b656e7320696e206974732062616c616e636560601b606082015260800190565b6020808252602c908201527f5370656369667920616e20616d6f756e74206f6620746f6b656e20677265617460408201526b6572207468616e207a65726f60a01b606082015260800190565b600082610ce357634e487b7160e01b81526012600452602481fd5b500490565b6000816000190483118215151615610d0e57634e487b7160e01b81526011600452602481fd5b50029056fea264697066735822122051cd1b9639d70c71309ff9b90d5b86fffb7599aeba01b26e16b45545d684d93a64736f6c63430008040033",
  "linkReferences": {},
  "deployedLinkReferences": {}
}