{
  "_format": "hh-sol-artifact-1",
  "contractName": "LuxVestingToken",
  "sourceName": "contracts/LuxVestingToken.sol",
  "abi": [
    {
      "inputs": [
        {
          "internalType": "uint256",
          "name": "initialSupply",
          "type": "uint256"
        }
      ],
      "stateMutability": "nonpayable",
      "type": "constructor"
    },
    {
      "anonymous": false,
      "inputs": [
        {
          "indexed": true,
          "internalType": "address",
          "name": "owner",
          "type": "address"
        },
        {
          "indexed": true,
          "internalType": "address",
          "name": "spender",
          "type": "address"
        },
        {
          "indexed": false,
          "internalType": "uint256",
          "name": "value",
          "type": "uint256"
        }
      ],
      "name": "Approval",
      "type": "event"
    },
    {
      "anonymous": false,
      "inputs": [
        {
          "indexed": true,
          "internalType": "address",
          "name": "from",
          "type": "address"
        },
        {
          "indexed": true,
          "internalType": "address",
          "name": "to",
          "type": "address"
        },
        {
          "indexed": false,
          "internalType": "uint256",
          "name": "value",
          "type": "uint256"
        }
      ],
      "name": "Transfer",
      "type": "event"
    },
    {
      "inputs": [
        {
          "internalType": "address",
          "name": "owner",
          "type": "address"
        },
        {
          "internalType": "address",
          "name": "spender",
          "type": "address"
        }
      ],
      "name": "allowance",
      "outputs": [
        {
          "internalType": "uint256",
          "name": "",
          "type": "uint256"
        }
      ],
      "stateMutability": "view",
      "type": "function"
    },
    {
      "inputs": [
        {
          "internalType": "address",
          "name": "spender",
          "type": "address"
        },
        {
          "internalType": "uint256",
          "name": "amount",
          "type": "uint256"
        }
      ],
      "name": "approve",
      "outputs": [
        {
          "internalType": "bool",
          "name": "",
          "type": "bool"
        }
      ],
      "stateMutability": "nonpayable",
      "type": "function"
    },
    {
      "inputs": [
        {
          "internalType": "address",
          "name": "account",
          "type": "address"
        }
      ],
      "name": "balanceOf",
      "outputs": [
        {
          "internalType": "uint256",
          "name": "",
          "type": "uint256"
        }
      ],
      "stateMutability": "view",
      "type": "function"
    },
    {
      "inputs": [],
      "name": "decimals",
      "outputs": [
        {
          "internalType": "uint8",
          "name": "",
          "type": "uint8"
        }
      ],
      "stateMutability": "view",
      "type": "function"
    },
    {
      "inputs": [
        {
          "internalType": "address",
          "name": "spender",
          "type": "address"
        },
        {
          "internalType": "uint256",
          "name": "subtractedValue",
          "type": "uint256"
        }
      ],
      "name": "decreaseAllowance",
      "outputs": [
        {
          "internalType": "bool",
          "name": "",
          "type": "bool"
        }
      ],
      "stateMutability": "nonpayable",
      "type": "function"
    },
    {
      "inputs": [],
      "name": "deposit",
      "outputs": [],
      "stateMutability": "payable",
      "type": "function"
    },
    {
      "inputs": [
        {
          "internalType": "address",
          "name": "spender",
          "type": "address"
        },
        {
          "internalType": "uint256",
          "name": "addedValue",
          "type": "uint256"
        }
      ],
      "name": "increaseAllowance",
      "outputs": [
        {
          "internalType": "bool",
          "name": "",
          "type": "bool"
        }
      ],
      "stateMutability": "nonpayable",
      "type": "function"
    },
    {
      "inputs": [],
      "name": "name",
      "outputs": [
        {
          "internalType": "string",
          "name": "",
          "type": "string"
        }
      ],
      "stateMutability": "view",
      "type": "function"
    },
    {
      "inputs": [],
      "name": "symbol",
      "outputs": [
        {
          "internalType": "string",
          "name": "",
          "type": "string"
        }
      ],
      "stateMutability": "view",
      "type": "function"
    },
    {
      "inputs": [],
      "name": "totalSupply",
      "outputs": [
        {
          "internalType": "uint256",
          "name": "",
          "type": "uint256"
        }
      ],
      "stateMutability": "view",
      "type": "function"
    },
    {
      "inputs": [
        {
          "internalType": "address",
          "name": "to",
          "type": "address"
        },
        {
          "internalType": "uint256",
          "name": "amount",
          "type": "uint256"
        }
      ],
      "name": "transfer",
      "outputs": [
        {
          "internalType": "bool",
          "name": "",
          "type": "bool"
        }
      ],
      "stateMutability": "nonpayable",
      "type": "function"
    },
    {
      "inputs": [
        {
          "internalType": "address",
          "name": "from",
          "type": "address"
        },
        {
          "internalType": "address",
          "name": "to",
          "type": "address"
        },
        {
          "internalType": "uint256",
          "name": "amount",
          "type": "uint256"
        }
      ],
      "name": "transferFrom",
      "outputs": [
        {
          "internalType": "bool",
          "name": "",
          "type": "bool"
        }
      ],
      "stateMutability": "nonpayable",
      "type": "function"
    }
  ],
  "bytecode": "0x60806040523480156200001157600080fd5b5060405162000c2138038062000c2183398101604081905262000034916200025a565b6040518060400160405280600a8152602001694c757856657374696e6760b01b81525060405180604001604052806003815260200162098acb60eb1b81525081600390805190602001906200008b929190620001b4565b508051620000a1906004906020840190620001b4565b505050620000c53382670de0b6b3a7640000620000bf91906200028e565b620000cc565b5062000303565b6001600160a01b038216620001275760405162461bcd60e51b815260206004820152601f60248201527f45524332303a206d696e7420746f20746865207a65726f206164647265737300604482015260640160405180910390fd5b80600260008282546200013b919062000273565b90915550506001600160a01b038216600090815260208190526040812080548392906200016a90849062000273565b90915550506040518181526001600160a01b038316906000907fddf252ad1be2c89b69c2b068fc378daa952ba7f163c4a11628f55a4df523b3ef9060200160405180910390a35050565b828054620001c290620002b0565b90600052602060002090601f016020900481019282620001e6576000855562000231565b82601f106200020157805160ff191683800117855562000231565b8280016001018555821562000231579182015b828111156200023157825182559160200191906001019062000214565b506200023f92915062000243565b5090565b5b808211156200023f576000815560010162000244565b6000602082840312156200026c578081fd5b5051919050565b60008219821115620002895762000289620002ed565b500190565b6000816000190483118215151615620002ab57620002ab620002ed565b500290565b600181811c90821680620002c557607f821691505b60208210811415620002e757634e487b7160e01b600052602260045260246000fd5b50919050565b634e487b7160e01b600052601160045260246000fd5b61090e80620003136000396000f3fe6080604052600436106100a75760003560e01c806370a082311161006457806370a082311461018257806395d89b41146101b8578063a457c2d7146101cd578063a9059cbb146101ed578063d0e30db01461020d578063dd62ed3e1461020f57600080fd5b806306fdde03146100ac578063095ea7b3146100d757806318160ddd1461010757806323b872dd14610126578063313ce567146101465780633950935114610162575b600080fd5b3480156100b857600080fd5b506100c161022f565b6040516100ce9190610826565b60405180910390f35b3480156100e357600080fd5b506100f76100f23660046107fd565b6102c1565b60405190151581526020016100ce565b34801561011357600080fd5b506002545b6040519081526020016100ce565b34801561013257600080fd5b506100f76101413660046107c2565b6102d9565b34801561015257600080fd5b50604051601281526020016100ce565b34801561016e57600080fd5b506100f761017d3660046107fd565b6102fd565b34801561018e57600080fd5b5061011861019d36600461076f565b6001600160a01b031660009081526020819052604090205490565b3480156101c457600080fd5b506100c161031f565b3480156101d957600080fd5b506100f76101e83660046107fd565b61032e565b3480156101f957600080fd5b506100f76102083660046107fd565b6103ae565b005b34801561021b57600080fd5b5061011861022a366004610790565b6103bc565b60606003805461023e9061089d565b80601f016020809104026020016040519081016040528092919081815260200182805461026a9061089d565b80156102b75780601f1061028c576101008083540402835291602001916102b7565b820191906000526020600020905b81548152906001019060200180831161029a57829003601f168201915b5050505050905090565b6000336102cf8185856103e7565b5060019392505050565b6000336102e785828561050b565b6102f2858585610585565b506001949350505050565b6000336102cf81858561031083836103bc565b61031a9190610879565b6103e7565b60606004805461023e9061089d565b6000338161033c82866103bc565b9050838110156103a15760405162461bcd60e51b815260206004820152602560248201527f45524332303a2064656372656173656420616c6c6f77616e63652062656c6f77604482015264207a65726f60d81b60648201526084015b60405180910390fd5b6102f282868684036103e7565b6000336102cf818585610585565b6001600160a01b03918216600090815260016020908152604080832093909416825291909152205490565b6001600160a01b0383166104495760405162461bcd60e51b8152602060048201526024808201527f45524332303a20617070726f76652066726f6d20746865207a65726f206164646044820152637265737360e01b6064820152608401610398565b6001600160a01b0382166104aa5760405162461bcd60e51b815260206004820152602260248201527f45524332303a20617070726f766520746f20746865207a65726f206164647265604482015261737360f01b6064820152608401610398565b6001600160a01b0383811660008181526001602090815260408083209487168084529482529182902085905590518481527f8c5be1e5ebec7d5bd14f71427d1e84f3dd0314c0f7b2291e5b200ac8c7c3b925910160405180910390a3505050565b600061051784846103bc565b9050600019811461057f57818110156105725760405162461bcd60e51b815260206004820152601d60248201527f45524332303a20696e73756666696369656e7420616c6c6f77616e63650000006044820152606401610398565b61057f84848484036103e7565b50505050565b6001600160a01b0383166105e95760405162461bcd60e51b815260206004820152602560248201527f45524332303a207472616e736665722066726f6d20746865207a65726f206164604482015264647265737360d81b6064820152608401610398565b6001600160a01b03821661064b5760405162461bcd60e51b815260206004820152602360248201527f45524332303a207472616e7366657220746f20746865207a65726f206164647260448201526265737360e81b6064820152608401610398565b6001600160a01b038316600090815260208190526040902054818110156106c35760405162461bcd60e51b815260206004820152602660248201527f45524332303a207472616e7366657220616d6f756e7420657863656564732062604482015265616c616e636560d01b6064820152608401610398565b6001600160a01b038085166000908152602081905260408082208585039055918516815290812080548492906106fa908490610879565b92505081905550826001600160a01b0316846001600160a01b03167fddf252ad1be2c89b69c2b068fc378daa952ba7f163c4a11628f55a4df523b3ef8460405161074691815260200190565b60405180910390a361057f565b80356001600160a01b038116811461076a57600080fd5b919050565b600060208284031215610780578081fd5b61078982610753565b9392505050565b600080604083850312156107a2578081fd5b6107ab83610753565b91506107b960208401610753565b90509250929050565b6000806000606084860312156107d6578081fd5b6107df84610753565b92506107ed60208501610753565b9150604084013590509250925092565b6000806040838503121561080f578182fd5b61081883610753565b946020939093013593505050565b6000602080835283518082850152825b8181101561085257858101830151858201604001528201610836565b818111156108635783604083870101525b50601f01601f1916929092016040019392505050565b6000821982111561089857634e487b7160e01b81526011600452602481fd5b500190565b600181811c908216806108b157607f821691505b602082108114156108d257634e487b7160e01b600052602260045260246000fd5b5091905056fea26469706673582212206fe078177793d5935f39e1fc64a7265fc808e46ca0c1370118437ab1000df90464736f6c63430008040033",
  "linkReferences": {},
  "deployedLinkReferences": {}
}